:100000000C94A7000C94C4000C94C4000C94C4007D
:100010000C94C4000C94C4000C94C4000C94C40050
:100020000C94C4000C9411020C94C4000C94C400F1
:100030000C94C4000C94C4000C94C4000C94C40030
:100040000C94C4000C94C4000C94C4000C94C40020
:100050000C94C40000407A10F35A00A0724E1809A4
:100060000010A5D4E80000E87648170000E40B541F
:10007000020000CA9A3B000000E1F50500008096EE
:100080009800000040420F000000A0860100000020
:10009000102700000000E8030000000064000000DA
:1000A00000000A00000000000100000000002C76A3
:1000B000D888DC674F0823DFC1DFAE59E1B1B796BE
:1000C000E5E3E453C63AE651997696E8E6C284261B
:1000D000EB898C9B62ED407C6FFCEFBC9C9F40F2F7
:1000E000BAA56FA5F490055A2AF75C936B6CF96773
:1000F0006DC11BFCE0E40D47FEF520E6B500D0ED38
:10010000902E0300943577050080841E080000209F
:100110004E0A000000C80C333333330F986E12833D
:100120001141EF8D2114893BE65516CFFEE6DB1811
:10013000D1844B381BF77C1D901DA4BBE4242032D6
:1001400084725E228100C9F124ECA1E53D271124CF
:100150001FBECFE5D8E0DEBFCDBF10E0A0E6B0E027
:10016000E4E2F0E102C005900D92A63AB107D9F79A
:1001700020E0A6EAB0E001C01D92A23CB207E1F780
:100180000E9412030C9410080C940000A69AA59AE1
:10019000A49AA39AAE98AD98AC98AB980895AB9AF0
:1001A000AD9AAC98AE980895AC9AAE9AAD98AB98CB
:1001B0000895AE9AAB9AAD98AC980895AD98AB9867
:1001C000AE98AC980895AD9AAC9AAE98AB98089555
:1001D0009BB39F70282F207F922B9BBBC198C39A03
:1001E00035E03A95F1F70000C398EFE1F3E031977D
:1001F000F1F700C000002BB32F70F0E18F9FC0011A
:100200001124822B8BBBC39A35E03A95F1F700009D
:10021000C3988FE39FE10197F1F700C000000895B4
:100220009BB39F70282F207F922B9BBBC19AC39AB0
:1002300035E03A95F1F70000C398EFE1F3E031972C
:10024000F1F700C000002BB32F70F0E18F9FC001C9
:100250001124822B8BBBC39A35E03A95F1F700004D
:10026000C3988FE39FE10197F1F700C00000089564
:100270008FEF8ABBB99ABA9ABB9AC2982FEF89EFCF
:1002800090E0215080409040E1F700C0000082E003
:100290000E94E80088E20E94E8008CE00E94E800EA
:1002A00086E00E94E80081E00E94E8008FE39FE181
:1002B0000197F1F700C000000895CF93DF93EC01A0
:1002C0008881882331F021960E9410018991811143
:1002D000FBCFDF91CF910895CF93DF93EA01811196
:1002E00008C0603178F4862F8F7080680E94E80023
:1002F00009C0813039F4603128F4862F8F70806C0A
:100300000E94E800CE010E945D01DF91CF91089527
:1003100081E00E94E8008FE39FE10197F1F700C0C0
:10032000000080E80E94E80008959C011FBC1EBCEC
:100330009FB592609FBD9FB590689FBD9EB592602E
:100340009EBD9EB598609EBD9EB590619EBD8FE39B
:100350009CE997BD86BD1DBC1CBC8D9A3BBD2ABDCA
:1003600008951092AB001092AA00BE9A8E987894CD
:1003700089B7846089BF1FBC1EBC0895C69A85E3F7
:100380008A95F1F70000C6981DBC1CBC8EB5806430
:100390008EBD8EB581608EBD88B7806288BF88B7FC
:1003A000846088BF08B605FEFDCF1DBC1CBC8EB5A1
:1003B0008F7B8EBD8EB581608EBD88B7806288BF11
:1003C00088B7846088BF1092AB001092AA0008B66C
:1003D00005FEFDCF46B557B5A091AA00B091AB0080
:1003E0002FEF3FEF0E947105640F751F811D911D56
:1003F0006093AC007093AD008093AE009093AF001B
:100400000E94BC042DEC3CE349E654E40E94120433
:100410006093A6007093A7008093A8009093A90012
:1004200008951F920F920FB60F9211248F939F93EE
:100430008091AA009091AB0001969093AB008093BD
:10044000AA009F918F910F900FBE0F901F9018954B
:100450000F931F932FEF8AE693E021508040904046
:10046000E1F700C000000E94B1010E94BE0160914E
:10047000A6007091A7008091A8009091A90000EBC0
:1004800010E022E042E00E9487054AE650E060E08A
:1004900080E00E946C01A80167E080E00E946C018E
:1004A0006091A6007091A7008091A8009091A9008A
:1004B0001F910F910895CF92DF92EF92FF9280915A
:1004C0006400909165000E9495012FEF89E698E104
:1004D000215080409040E1F700C000000E942802B7
:1004E0006B017C012FEF81EE94E021508040904021
:1004F000E1F700C0000080916600909167000E94C3
:100500009501C701B6010E948404072E000C880BD8
:10051000990B0E94BC04FF90EF90DF90CF9008955C
:10052000CF92DF92EF92FF928091680090916900E4
:100530000E9495012FEF89E698E12150804090407C
:10054000E1F700C000000E9428026B017C012FEF40
:1005500081EE94E0215080409040E1F700C000001F
:1005600080916600909167000E949501C701B601D5
:100570000E948404072E000C880B990B0E94BC0477
:10058000FF90EF90DF90CF9008950E94880142E79E
:1005900050E061E081E00E946C010E94D4002FEFE6
:1005A00089E698E1215080409040E1F700C00000CA
:1005B0000E94D90008950E94880140E850E061E05F
:1005C00081E00E946C010E94CF002FEF89E698E144
:1005D000215080409040E1F700C000000E94D90007
:1005E00008950E9488014DE850E061E081E00E949A
:1005F0006C010E94D90008950E94880145E950E0ED
:1006000061E081E00E946C010E94E30008950E9475
:1006100088014EE950E061E081E00E946C010E9497
:10062000DE0008950E94C6000E9438018091660095
:10063000909167000E9495012FEF87EA91E6215083
:1006400080409040E1F700C000000E9428026093C3
:1006500060007093610080936200909363002FEFBD
:1006600081EE94E0215080409040E1F700C000000E
:100670000E94280260936000709361008093620082
:10068000909363002FEF81EE94E0215080409040E2
:10069000E1F700C000000E942802609360007093A0
:1006A000610080936200909363002FEF81EE94E0ED
:1006B000215080409040E1F700C000000E942802D5
:1006C0006093600070936100809362009093630078
:1006D0002FEF81EE94E0215080409040E1F700C080
:1006E00000001092BA001092BB001092BC00109251
:1006F000BD001092BE001092BF001092C000109278
:10070000C1002FEF80E792E0215080409040E1F758
:1007100000C0000020E030E040E252E46091600060
:100720007091610080916200909163000E940D04BD
:1007300018160CF465C00E9407032FEF85EA9EE0AF
:10074000215080409040E1F700C000000E94FC0270
:100750002FEF87E893E1215080409040E1F700C0FF
:1007600000000E9407032FEF85EA9EE021508040A1
:100770009040E1F700C000000E945B026093BE0061
:100780007093BF008093C0009093C1002FEF85EA63
:100790009EE0215080409040E1F700C000000E94A0
:1007A00090026093BA007093BB008093BC0090935A
:1007B000BD002FEF85EA9EE0215080409040E1F798
:1007C00000C000002091BA003091BB004091BC00F5
:1007D0005091BD006091BE007091BF008091C0003B
:1007E0009091C1000E946C0588232CF00E94C502E4
:1007F0000E94070307C00E94DB020E94070302C099
:100800000E94F1020E9428026093600070936100D0
:10081000809362009093630064CF0E94F70408F411
:1008200081E008950E9426040C9432050E942B0555
:1008300058F00E94240540F029F45F3F29F00C9401
:100840001B0551110C9466050C9421050E9443056B
:1008500068F39923B1F3552391F3951B550BBB27EF
:10086000AA2762177307840738F09F5F5F4F220F34
:10087000331F441FAA1FA9F335D00E2E3AF0E0E82B
:1008800032D091505040E695001CCAF72BD0FE2F75
:1008900029D0660F771F881FBB1F26173707480709
:1008A000AB07B0E809F0BB0B802DBF01FF279358C1
:1008B0005F4F3AF09E3F510578F00C941B050C9465
:1008C00066055F3FE4F3983ED4F386957795679588
:1008D000B795F7959F5FC9F7880F911D96958795F6
:1008E00097F90895E1E0660F771F881FBB1F621715
:1008F00073078407BA0720F0621B730B840BBA0BD3
:10090000EE1F88F7E09508950E948B046894B1115A
:100910000C94660508950E944B0588F09F5798F047
:10092000B92F9927B751B0F0E1F0660F771F881FF4
:10093000991F1AF0BA95C9F714C0B13091F00E940E
:100940006505B1E008950C946505672F782F882719
:10095000B85F39F0B93FCCF3869577956795B39535
:10096000D9F73EF490958095709561957F4F8F4FA4
:100970009F4F0895E89409C097FB3EF490958095A9
:10098000709561957F4F8F4F9F4F9923A9F0F92F55
:1009900096E9BB279395F695879577956795B795D3
:1009A000F111F8CFFAF4BB0F11F460FF1BC06F5FB9
:1009B0007F4F8F4F9F4F16C0882311F096E911C0CB
:1009C000772321F09EE8872F762F05C0662371F0EC
:1009D00096E8862F70E060E02AF09A95660F771F00
:1009E000881FDAF7880F9695879597F90895990FDC
:1009F0000008550FAA0BE0E8FEEF16161706E807E9
:100A0000F907C0F012161306E407F50798F0621B09
:100A1000730B840B950B39F40A2661F0232B242BDE
:100A2000252B21F408950A2609F4A140A6958FEFFD
:100A3000811D811D089597F99F6780E870E060E04F
:100A400008959FEF80EC089500240A941616170667
:100A500018060906089500240A94121613061406AF
:100A600005060895092E0394000C11F4882352F012
:100A7000BB0F40F4BF2B11F460FF04C06F5F7F4FCA
:100A80008F4F9F4F089557FD9058440F551F59F0B1
:100A90005F3F71F04795880F97FB991F61F09F3F6B
:100AA00079F087950895121613061406551FF2CF94
:100AB0004695F1DF08C0161617061806991FF1CFE4
:100AC00086957105610508940895E894BB2766270B
:100AD0007727CB0197F908950E94F70408F48FEF68
:100AE00008950E947805B7FF0895821B930B08951F
:100AF000A29FB001B39FC001A39F700D811D11245F
:100B0000911DB29F700D811D1124911D0895EF92CA
:100B10000F931F93CF93DF93E80147FD02C034E0AA
:100B200001C034E1042E000C550B57FF03C0519552
:100B300041955109E32E022F242FAE010E94A705F3
:100B4000CE01DF91CF911F910F91EF900895A9E011
:100B5000B0E0EDEAF5E00C94DF076A01122FB02E49
:100B60002BE3201720F0FF24F394F00E02C02CE3B7
:100B7000F22E0F2D27E0AE014F5F5F4F0E9401075D
:100B8000BC014981842F8970813031F0E1FC06C0BD
:100B9000E0FE06C090E205C09DE203C09BE201C0FA
:100BA00090E05E2D507143FF3CC0911102C083E084
:100BB00001C084E0811718F4212F281B01C020E018
:100BC00051110BC0F601822F30E2882319F03193C6
:100BD0008150FBCFC20ED11C20E0992329F0D60111
:100BE0009C93F60131966F01C6010396E2FE0AC09E
:100BF0003EE4D6013C9341E411964C931197129632
:100C00003C9306C03EE6F601308341E641833283E1
:100C1000FC01322F40E2332309F442C041933150AA
:100C2000FACF42FF44C0911102C083E001C084E0CA
:100C3000811718F4212F281B01C020E051110BC08F
:100C4000F601822F30E2882319F031938150FBCFD7
:100C5000C20ED11C20E0992329F0D6019C93F60105
:100C600031966F01C6010396E2FE0BC039E4D6014E
:100C70003C933EE411963C93119736E412963C93D4
:100C800007C039E6F60130833EE6318336E632832B
:100C9000FC01322F40E2332319F041933150FBCF56
:100CA000FC01E20FF11D10828EEF9FEFA6C021E044
:100CB00030E0911102C020E030E0161617061CF457
:100CC000FB01319602C0E1E0F0E02E0F3F1FBB2098
:100CD00021F0EB2DF0E0319602C0E0E0F0E02E0FC5
:100CE0003F1FE12FF0E02E173F071CF4121B212FAE
:100CF00001C020E08E2D887159F4F601822F30E278
:100D0000882319F031938150FBCFC20ED11C20E013
:100D1000992329F0D6019C93F60131966F01511168
:100D20000BC0F601822F90E3882319F09193815034
:100D3000FBCFC20ED11C20E00F2D060F9A81342F5D
:100D4000307144FF03C0913309F40150101624F4AC
:100D5000093018F008E001C001E0AB0177FF02C0E4
:100D600040E050E0FB01E41BF50BA1E0B0E0AC0F6C
:100D7000BD1FEA0FFB1F8EE2A82E4B01801A9108BF
:100D80000B2D10E01195019511094F3FBFEF5B0747
:100D900021F4D601AC9211966D01641775072CF001
:100DA0008416950614F4818101C080E341505109F5
:100DB0003196D60111967D014017510724F0D601D6
:100DC0008C936701E2CF6417750739F4963320F4EA
:100DD000953319F4311101C081E3F6018083F701E5
:100DE000822F90E2882319F091938150FBCFF70175
:100DF000E20FF11D108280E090E02996ECE00C9467
:100E0000FB07283008F027E03327DA01990F311D5E
:100E100087FD916000966105710539F432602E5F9F
:100E20003D9330E32A95E1F708959F3F30F08038F5
:100E30007105610509F03C5F3C5F3D93913008F01E
:100E40008068911DDF93CF931F930F93FF92EF92D2
:100E5000192F987F9695E92F96959695E90FFF277C
:100E6000E255FF4F99273327EE24FF24A701E7011E
:100E700005900894079428F4360FE71EF81E491FC2
:100E8000511D660F771F881F991F0694A1F70590C3
:100E9000079428F4E70EF81E491F561FC11D770F4F
:100EA000881F991F661F0694A1F70590079428F4E0
:100EB000F80E491F561FC71FD11D880F991F661FA7
:100EC000771F0694A1F70590079420F4490F561F49
:100ED000C71FD81F990F661F771F881F0694A9F791
:100EE00084911095177041F0D695C7955795479501
:100EF000F794E7941A95C1F7E4E5F0E0689415904B
:100F0000159135916591959105907FE27395E11862
:100F1000F10A430B560BC90BD009C0F7E10CF11EC7
:100F2000431F561FC91FD01D7EF4703311F48A95DC
:100F3000E6CFE894015030F0080F0AF400270217BA
:100F400008F4202F2395022F7A3328F079E37D933C
:100F50002A95E9F710C07D932A9589F6069497950E
:100F60006795379517951794E118F10A430B560BBF
:100F7000C90BD00998F023957E9173957A3308F0C8
:100F800070E37C932013B8F77E9170617D9330F00D
:100F9000839571E37D9370E32A95E1F71124EF9037
:100FA000FF900F911F91CF91DF91992787FD909529
:100FB00008952F923F924F925F926F927F928F92FD
:100FC0009F92AF92BF92CF92DF92EF92FF920F93D8
:100FD0001F93CF93DF93CDB7DEB7CA1BDB0B0FB6E2
:100FE000F894DEBF0FBECDBF09942A88398848889F
:100FF0005F846E847D848C849B84AA84B984C88435
:10100000DF80EE80FD800C811B81AA81B981CE0F2B
:10101000D11D0FB6F894DEBF0FBECDBFED01089510
:04102000F894FFCF72
:101024000000C8424605080CF21244697374203D5E
:1010340020005455524E494E4720524947485400C7
:101044005455524E494E47204C45465400464F5243
:1010540057415244004241434B5741524400535478
:061064004F50504544000E
:00000001FF
